:100000000C94340018950000189500001895000015
:10001000189500001895000018950000189500002C
:10002000189500000C94A60E189500001895000075
:10003000189500001895000018950000189500000C
:100040000C94130E189500000C94D03418950000F1
:1000500018950000189500001895000018950000EC
:1000600018950000189500008FEF8DBFC0E0E8E103
:100070004E2E88E08EBFD8E0F6E05F2EA89584B7BC
:10008000082E877F84BF88E1992780936000909332
:100090006000EEEFF7E0A0E0B1E088278D933197A4
:1000A000E9F783E38093C40080E08093C50088E192
:1000B0008093C100662483E38093C40080E0809332
:1000C000C5007091C0007D7F7093C00088E180936F
:1000D000C10086E08093C2007091C1007068709387
:1000E000C1008091C1008F738093C1000E947A305B
:1000F0008CE00E94C8300E94653085E085BD80E0BC
:1001000084BD70916E00716070936E00882785BD0C
:1001100087E08093B10080E08093B0007091700020
:1001200071607093700088278093B100239A2B9A96
:100130003B9A43982098289A2198299A22982A9A9B
:1001400024982C9A25982D9A3998419AE8E6F1E05E
:1001500080E40E94C83058E0C895802D0E94C230CB
:1001600031965A95C9F704C00C0E0F0F0F0F0F0FE1
:10017000ECE8F1E088E40E94C83058E0C895802D92
:100180000E94C23031965A95C9F704C00F0F0F0F65
:100190000F0F0E0CE0EBF1E080E50E94C83058E054
:1001A000C895802D0E94C23031965A95C9F704C077
:1001B0001F0F072020202020E4EDF1E088E50E94B9
:1001C000C83058E0C895802D0E94C23031965A95AB
:1001D000C9F704C01F1E1C2020202020E8EFF1E0FA
:1001E00080E60E94C83058E0C895802D0E94C23039
:1001F00031965A95C9F704C02020202020070F1FF0
:10020000ECE1F2E088E60E94C83058E0C895802D05
:100210000E94C23031965A95C9F704C02020202090
:10022000201C1E1FE0E4F2E080E70E94C83058E086
:10023000C895802D0E94C23031965A95C9F704C0E6
:10024000060E1E1E1E1E1E1EE4E6F2E088E70E9439
:10025000C83058E0C895802D0E94C23031965A951A
:10026000C9F704C01E1E1E1E1E1E0E067091C0027F
:100270007F777093C0027091C0027F7B7093C00241
:100280007091C0027F7D7093C0027091C0027F7E2A
:100290007093C002A6ECB2E00E944D337091C00290
:1002A000777F7093C0027091C0027B7F7093C00211
:1002B0007091C0027D7F7093C0027091C0027E7FFA
:1002C0007093C0027091CC027F777093CC027091D2
:1002D000CC027F7B7093CC027091CC027F7D7093B7
:1002E000CC027091CC027F7E7093CC027091CC02D4
:1002F000777F7093CC027091DB027F777093DB0283
:10030000A6E1B3E00E944D337091DB027F7B7093D6
:10031000DB020E943A39789481E090E0A1ECB2E0EF
:100320008D939C93A1ECB2E00D911C91043150E0AF
:1003300015071CF011F00C94A90188E086B982E33E
:1003400090E00E946C31A1ECB2E00E94B92F0C94B5
:10035000920143980E94653084E690E00E946C31DF
:100360000E94E4270E948B2A89E080935D0281E04D
:1003700080935E027091CC027F777093CC020E94D2
:100380009B142B9881E080936D0285E080936E0230
:100390008AE080936F028EE0809370022B9AA5E62C
:1003A000B2E00E944D33A7E6B2E00E944D3385E0F3
:1003B00085BD0E94C40FE7E3F1E0A3E8B2E00E942C
:1003C0007F35E6E3F1E0A6E8B2E00E947F35E5E3A1
:1003D000F1E0A9E8B2E00E947F35A7E3B1E08C919B
:1003E000A1E7B2E08D9388278C93A6E3B1E08C91CE
:1003F000A3E7B2E08D9388278C93A3E8B2E00E9434
:100400005636082F013011F00C94220284E00E942D
:10041000C932E3E8F2E0A881B9810E940636A3E878
:10042000B2E0E6E6F3E70E94FC32E881F981A3E856
:10043000B2E00E9407300E94063684E0481A80E04D
:10044000580A2296A6E8B2E00E945636082F0130DC
:1004500011F00C94470284E00E94C932E6E8F2E011
:10046000A881B9810E940636A6E8B2E0E6E6F3E785
:100470000E94FC32E881F981A6E8B2E00E940730D0
:100480000E94063684E0481A80E0580A2296E3E883
:10049000F2E001E0A5E9B2E00E941836A3E8B2E07C
:1004A0000E945636EA2FFB2F32970FEFA7E9B2E0F2
:1004B0000E941836E6E8F2E001E0A9E9B2E00E9405
:1004C0001836A6E8B2E00E945636EA2FFB2F329784
:1004D0000FEFABE9B2E00E941836EFEAF2E002E07B
:1004E000A8EBB2E00E941836AFEAB2E00E9456369E
:1004F000EA2FFB2F33970FEFABEBB2E00E941836D9
:10050000E3E8F2E0A8EBB2E00E945E3681E009F099
:1005100080E08F93E6E8F2E0ABEBB2E00E945E365B
:1005200081E009F080E09F9189238F93A0ECB2E0F5
:100530008C9183FB81E00EF080E09F9189238823DA
:1005400011F40C94CA02ACECB2E08C9183FB16F46B
:100550000C94CA02439A7091CC0278607093CC02DA
:100560007091CC0271607093CC0283E090E0A7EDB3
:10057000B2E08D939C93A3EDB2E00E944D33A5EDC4
:10058000B2E00E944D33A4E1B3E00E944D3387E016
:100590008093B100A9E8B2E00E945636082F0130DE
:1005A00011F00C94E50283ED13E10E947430E6E64D
:1005B000F3E70E945E30E5E3F1E0A0E0B6E00E94E0
:1005C0007F350E9456300C94F10283ED13E10E94B6
:1005D0007430E5E3F1E0A0E0B6E00E947F350E94D0
:1005E0005630A3E8B2E00E945636082F013011F0D1
:1005F0000C94160384E00E94C932E3E8F2E0A8817B
:10060000B9810E940636A3E8B2E0E6E6F3E70E946D
:10061000FC32E881F981A3E8B2E00E9407300E9431
:10062000063684E0481A80E0580A2296A6E8B2E02E
:100630000E945636082F013011F00C943B0384E0E1
:100640000E94C932E6E8F2E0A881B9810E9406362C
:10065000A6E8B2E0E6E6F3E70E94FC32E881F98121
:10066000A6E8B2E00E9407300E94063684E0481AED
:1006700080E0580A2296E3E8F2E001E0A5E9B2E062
:100680000E941836A3E8B2E00E945636EA2FFB2FEC
:1006900032970FEFA7E9B2E00E941836E6E8F2E0E1
:1006A00001E0A9E9B2E00E941836A6E8B2E00E9493
:1006B0005636EA2FFB2F32970FEFABE9B2E00E94DC
:1006C0001836A5E9B2E0E6E6F3E70E945C3611F0E1
:1006D0000C94790380916D02D2018C9381E00E9489
:1006E000C9320E947910229681E00E94C5320C9492
:1006F000A303E8E6F3E70E945C3611F00C948F0345
:1007000080916D02D2018C9381E00E94C9320E94D7
:10071000BE10229681E00E94C5320C94A303EAE643
:10072000F3E70E945C3611F00C94A30380916D02F4
:10073000D2018C9381E00E94C9320E94031122965B
:1007400081E00E94C532A7E9B2E0E6E6F3E70E9445
:100750005C3611F00C94BB0380916E02D2018C9335
:1007600081E00E94C9320E947910229681E00E94A5
:10077000C5320C947F04E8E6F3E70E945C3611F082
:100780000C94D10380916E02D2018C9381E00E947F
:10079000C9320E94BE10229681E00E94C5320C949C
:1007A0007F04EAE6F3E70E945C3611F00C94E7035D
:1007B00080916E02D2018C9381E00E94C9320E9426
:1007C0000311229681E00E94C5320C947F04ECE66E
:1007D000F3E70E945C3611F00C94FD0380916E02E9
:1007E000D2018C9381E00E94C9320E944A11229664
:1007F00081E00E94C5320C947F04EEE6F3E70E948C
:100800005C3611F00C94130480916E02D2018C932B
:1008100081E00E94C9320E949111229681E00E94DB
:10082000C5320C947F04E0E7F3E70E945C3611F0D8
:100830000C94290480916E02D2018C9381E00E9475
:10084000C9320E94CE11229681E00E94C5320C94DA
:100850007F04E2E7F3E70E945C3611F00C943F045A
:1008600080916E02D2018C9381E00E94C9320E9475
:100870001512229681E00E94C5320C947F04E4E7B1
:10088000F3E70E945C3611F00C94550480916E02DF
:10089000D2018C9381E00E94C9320E945E1222969E
:1008A00081E00E94C5320C947F04E6E7F3E70E94E2
:1008B0005C3611F00C946B0480916E02D2018C9323
:1008C00081E00E94C9320E949912229681E00E9422
:1008D000C5320C947F04E8E7F3E70E945C3611F020
:1008E0000C947F0480916E02D2018C9381E00E946F
:1008F000C9320E94E012229681E00E94C532A9E925
:10090000B2E0E6E6F3E70E945C3611F00C9497043F
:1009100080916F02D2018C9381E00E94C9320E94C3
:100920007910229681E00E94C5320C945B05E8E6BE
:10093000F3E70E945C3611F00C94AD0480916F02D5
:10094000D2018C9381E00E94C9320E94BE1022968F
:1009500081E00E94C5320C945B05EAE6F3E70E9451
:100960005C3611F00C94C30480916F02D2018C9319
:1009700081E00E94C9320E940311229681E00E9408
:10098000C5320C945B05ECE6F3E70E945C3611F08F
:100990000C94D90480916F02D2018C9381E00E9463
:1009A000C9320E944A11229681E00E94C5320C94FD
:1009B0005B05EEE6F3E70E945C3611F00C94EF0461
:1009C00080916F02D2018C9381E00E94C9320E9413
:1009D0009111229681E00E94C5320C945B05E0E7FC
:1009E000F3E70E945C3611F00C94050580916F02CC
:1009F000D2018C9381E00E94C9320E94CE112296CE
:100A000081E00E94C5320C945B05E2E7F3E70E94A7
:100A10005C3611F00C941B0580916F02D2018C930F
:100A200081E00E94C9320E941512229681E00E9444
:100A3000C5320C945B05E4E7F3E70E945C3611F0E5
:100A40000C94310580916F02D2018C9381E00E9459
:100A5000C9320E945E12229681E00E94C5320C9437
:100A60005B05E6E7F3E70E945C3611F00C9447055E
:100A700080916F02D2018C9381E00E94C9320E9462
:100A80009912229681E00E94C5320C945B05E8E73A
:100A9000F3E70E945C3611F00C945B0580916F02C5
:100AA000D2018C9381E00E94C9320E94E01222960A
:100AB00081E00E94C532ABE9B2E0E6E6F3E70E94CE
:100AC0005C3611F00C94730580917002D2018C9306
:100AD00081E00E94C9320E947910229681E00E9432
:100AE000C5320C943706E8E6F3E70E945C3611F055
:100AF0000C94890580917002D2018C9381E00E9450
:100B0000C9320E94BE10229681E00E94C5320C9428
:100B10003706EAE6F3E70E945C3611F00C949F0575
:100B200080917002D2018C9381E00E94C9320E94B0
:100B30000311229681E00E94C5320C943706ECE640
:100B4000F3E70E945C3611F00C94B50580917002B9
:100B5000D2018C9381E00E94C9320E944A112296F0
:100B600081E00E94C5320C943706EEE6F3E70E945E
:100B70005C3611F00C94CB0580917002D2018C93FD
:100B800081E00E94C9320E949111229681E00E9468
:100B9000C5320C943706E0E7F3E70E945C3611F0AB
:100BA0000C94E10580917002D2018C9381E00E9447
:100BB000C9320E94CE11229681E00E94C5320C9467
:100BC0003706E2E7F3E70E945C3611F00C94F70574
:100BD00080917002D2018C9381E00E94C9320E9400
:100BE0001512229681E00E94C5320C943706E4E784
:100BF000F3E70E945C3611F00C940D0680917002B0
:100C0000D2018C9381E00E94C9320E945E1222962A
:100C100081E00E94C5320C943706E6E7F3E70E94B4
:100C20005C3611F00C94230680917002D2018C93F3
:100C300081E00E94C9320E949912229681E00E94AE
:100C4000C5320C943706E8E7F3E70E945C3611F0F2
:100C50000C94370680917002D2018C9381E00E943F
:100C6000C9320E94E012229681E00E94C5328FEBC9
:100C700019E00E947430EAE7F3E70E945E3083E9EE
:100C800019E00E947430EAE7F3E70E945E30A0ECBE
:100C9000B2E08C9183FB16F00C9458068FE713E1B9
:100CA0000E947430ECE7F3E70E945E300C9460061B
:100CB0008FE713E10E947430E0E8F3E70E945E30B2
:100CC0008EEE92E00E946C318FEB19E00E9474303E
:100CD000E4E8F3E70E945E3083E919E00E94743093
:100CE000E4E8F3E70E945E308AEF90E00E946C3106
:100CF000ACECB2E08C9180FB16F00C9481060E9463
:100D00008123A3E2B0E00C9104FB81E00EF480E0CB
:100D10008F93ACECB2E08C9180FB81E00EF480E02C
:100D20009F918923882311F40C94A1062B9AA5E6A0
:100D3000B2E00E944D33A7E6B2E00E944D3385E059
:100D400085BD1D990C943707A0ECB2E08C9180FB17
:100D500016F40C9435072B9AA5E6B2E00E944D33A9
:100D6000A7E6B2E00E944D3385E085BD7091C002D8
:100D700071607093C002189B0C94FE06ACECB2E05C
:100D80008C9187FB882780F9809580FBACECB2E0E2
:100D90008C9187F98C93ACECB2E08C9187FB16F0C8
:100DA0000C94EA060E9465308FE711E00E947430CF
:100DB000E6E8F3E70E945E3088EE93E00E946C3133
:100DC0000E94541384EC99E00E946C310E946530BB
:100DD0000C94FC060E94653083E911E00E94743097
:100DE000ECE9F3E70E945E300E949B1480ED97E0EF
:100DF0000E946C310E9465300C943507ACECB2E077
:100E00008C9184FB882780F9809580FBACECB2E064
:100E10008C9184F98C93ACECB2E08C9184FB16F04D
:100E20000C9425072B9A0E9465308FEB11E00E94ED
:100E30007430E2EBF3E70E945E3080ED97E00E94B1
:100E40006C310E9465300C9435070E9465308FEB41
:100E500011E00E947430E8ECF3E70E945E3080ED10
:100E600097E00E946C310E9465300C943C077091B1
:100E7000C0027E7F7093C002ACECB2E08C9187FB25
:100E800081E00EF080E08F93A3E2B0E00C9101FBD3
:100E900081E00EF480E09F9189238F93ACECB2E067
:100EA0008C9180FB81E00EF480E09F918923882360
:100EB00011F40C9483072B9AA5E6B2E00E944D33FF
:100EC000A7E6B2E00E944D3385E085BDAEE5B2E015
:100ED0008C918F5F8C9340915D0200915E020417AC
:100EE00018F011F00C9476070C94790781E0809348
:100EF0005E020E9465300E9454138CED95E00E94C2
:100F00006C310E946530ACECB2E08C9187FB81E0E3
:100F10000EF080E08F93A3E2B0E00C9102FB81E041
:100F20000EF480E09F9189238F93ACECB2E08C911A
:100F300080FB81E00EF480E09F918923882311F4E7
:100F40000C94C6072B9AA5E6B2E00E944D33A7E6A3
:100F5000B2E00E944D3385E085BD80915E028150F4
:100F600080935E0200915E02013010F00C94BC0789
:100F700080915D0280935E020E9465300E9454134E
:100F80008CED95E00E946C310E946530ACECB2E0D3
:100F90008C9187FB81E00EF480E08F93A3E2B0E0B8
:100FA0000C9101FB81E00EF480E09F9189238F93E7
:100FB000ACECB2E08C9180FB81E00EF480E09F917C
:100FC0008923882311F40C94F6072B9A882785BD72
:100FD0000E9421240E946530A5E6B2E00E944D33B4
:100FE000A7E6B2E00E944D3385E085BDACECB2E0EF
:100FF0008C9187FB81E00EF480E08F93A3E2B0E058
:101000000C9102FB81E00EF480E09F9189238F9385
:10101000ACECB2E08C9180FB81E00EF480E09F911B
:101020008923882311F40C9426082B9A882785BDE0
:101030000E947A270E946530A5E6B2E00E944D33F7
:10104000A7E6B2E00E944D3385E085BDACECB2E08E
:101050008C9187FB81E00EF080E08F93A6E2B0E0F8
:101060000C9101FB81E00EF480E09F9189238F9326
:10107000ACECB2E08C9180FB81E00EF480E09F91BB
:101080008923882311F40C947E092B9A3A9AE0E282
:10109000F3E080E590E00197429A0E945C3142982B
:1010A0000E945C31482F492BB1F70E9465308FE7D1
:1010B00011E00E947430EEEDF3E70E945E3083EDA4
:1010C00011E00E947430E4EFF3E70E945E300E946A
:1010D00054137091CC027F7B7093CC02ACECB2E0E5
:1010E0008C9186FB16F40C94740919990C94CD0814
:1010F000439AE2E2F3E70E941938EEE5F2E0A190AC
:10110000BB24E4E5F1E0AA0CBB1CAA0CBB1CEA0D55
:10111000FB1D0E94A7360E94CB37EDE0F0E0AEE564
:10112000B2E0AD90BB24A4E5B1E0AA0CBB1CAA0CB4
:10113000BB1CAA0DBB1D0E940B36A0E0B6E0AF930E
:10114000BF93EEE5F2E0A190BB24E4E5F1E0AA0C48
:10115000BB1CAA0CBB1CEA0DFB1D0E94A7360E94FB
:101160007B3111E003E0BF91AF910E940F35E0E0C9
:10117000F6E0AEE5B2E00D91112748E050E00E94A4
:10118000CF32ADE0B2E0A00FB11F0E9406360E9440
:10119000541384E690E00E946C311A990C9425094E
:1011A000439AE2E2F3E70E941938EEE5F2E0A190FB
:1011B000BB24E4E5F1E0AA0CBB1CAA0CBB1CEA0DA5
:1011C000FB1D0E94A7360E94BC37EDE0F0E0AEE5C3
:1011D000B2E0AD90BB24A4E5B1E0AA0CBB1CAA0C04
:1011E000BB1CAA0DBB1D0E940B36A0E0B6E0AF935E
:1011F000BF93EEE5F2E0A190BB24E4E5F1E0AA0C98
:10120000BB1CAA0CBB1CEA0DFB1D0E94A7360E944A
:101210007B3111E003E0BF91AF910E940F35E0E018
:10122000F6E0AEE5B2E00D91112748E050E00E94F3
:10123000CF32ADE0B2E0A00FB11F0E9406360E948F
:10124000541384E690E00E946C3118990C94710953
:101250000E94653000915E0240E1049FACE6B3E07D
:101260000C9200E910E020E030E0ACE6B3E04C91F5
:101270005527662777270E945735A1E7B3E00D93DE
:101280001D932D933D93A1E7B3E0ED91FC91AEE565
:10129000B2E00D91112748E050E00E94CF32ADE05E
:1012A000B2E0A00FB11F98E07BE70E9431360E94A8
:1012B00054133A9AE0E2F3E080E590E00197429A15
:1012C0000E945C3142980E945C31482F492BB1F753
:1012D0008CED95E00E946C317091CC02706470933B
:1012E000CC0243980C946E08A5E6B2E00E944D3300
:1012F000A7E6B2E00E944D3385E085BDACECB2E0DC
:101300008C9187FB81E00EF480E08F93A6E2B0E041
:101310000C9101FB81E00EF480E09F9189238F9373
:10132000ACECB2E08C9180FB81E00EF480E09F9108
:101330008923882311F40C94D40C2B9A3A9AE0E276
:10134000F3E080E590E00197429A0E945C31429878
:101350000E945C31482F492BB1F70E9465308FE71E
:1013600011E00E947430EAE0F4E70E945E3083ED01
:1013700011E00E947430E0E2F4E70E945E30809158
:10138000C100806C8093C1007091CC027F7B709310
:10139000CC02ACECB2E08C9186FB16F40C94C50C3C
:1013A000ABEDB2E08C9186FB16F00C94A40C70911E
:1013B000DB027F7B7093DB02E7E3F3E001E0A8E56B
:1013C000B3E00E941836A8E5B3E0E6E3F4E70E9434
:1013D0005C3611F00C947B0B82E0E7E3F3E001E074
:1013E0000A93ACE5B3E00E941136ACE5B3E00E948D
:1013F000C535AEE5B3E00C93A7E3B3E0E8E3F4E76B
:101400002FEF91E00E940733AFE5B3E00D938827FB
:101410008C93AFE5B3E00D911C9104501040A1E610
:10142000B3E00D931C93A7E3B3E00E945636082F58
:101430001127AFE5B3E04D915C91041B150BA3E6BA
:10144000B3E00D931C9300915E0340E1049FACE672
:10145000B3E00C9200E010E020E030E0ACE6B3E056
:101460004C915527662777270E945735ADE6B3E0A4
:101470000D931D932D933D9300E910E020E030E0A3
:10148000ACE6B3E04C915527662777270E94573585
:10149000A1E7B3E00D931D932D933D9380E0AEE55E
:1014A000B3E00D91112741E150E00E94CF32ABE64D
:1014B000B1E0A00FB11F8D9388278C9380E0AEE53B
:1014C000B3E00D91112748E050E00E94CF32ADE02B
:1014D000B2E0A00FB11F8D9388278C93AEE5B3E0E7
:1014E000AD90BB24A4E5B1E0AA0CBB1CAA0CBB1CAC
:1014F000AA0DBB1DE6E2F3E70E943A33A5E6B3E08E
:101500000E944D33A5E6B3E00D911C910F3050E0E1
:1015100015071CF011F00C94ED0AADE6B3E00D9147
:101520001D912D913C91A5E6B3E04D915D9157FB46
:101530001EF46FEF7FEF02C0662777270E945735B2
:10154000A8E6B3E00D931D932D933D93A8E6B3E079
:10155000ED91FC91AEE5B3E00D91112741E150E032
:101560000E94CF32ABE6B1E0A00FB11F91E17BE763
:101570000E943136A1E7B3E00D911D912D913C9170
:10158000A5E6B3E04D915D9157FB1EF46FEF7FEF41
:1015900002C0662777270E945735A8E6B3E00D936F
:1015A0001D932D933D93A8E6B3E0ED91FC91AEE53C
:1015B000B3E00D91112748E050E00E94CF32ADE03A
:1015C000B2E0A00FB11F98E07BE70E943136A5E69C
:1015D000B3E00E94B92F0C94820AA1E6B3E00D910A
:1015E0001C91003050E015071CF011F00C94FA0A21
:1015F0000C94220B84E0E7E3F3E0009161030A938B
:10160000AEE5B3E00D91112741E150E00E94CF32E9
:10161000ABE6B1E0A00FB11F0E941136ADE6B3E01A
:10162000ED91FC91AEE5B3E00D91112741E150E061
:101630000E94CF32ABE6B1E0A00FB11F91E17BE792
:101640000E943136A3E6B3E00D911C91003050E0CA
:1016500015071CF011F00C942F0B0C947B0BA7E3D7
:10166000B3E00E945636EA2FFB2F009163033197B7
:10167000E01BF0400FEFAEE5B3E00D91112748E01D
:1016800050E00E94CF32ADE0B2E0A00FB11F0E9447
:101690001836AEE5B3E00D91112748E050E00E9406
:1016A000CF32ADE0B2E0A00FB11F0E942638EDE0CE
:1016B000F0E0AEE5B3E0AD90BB24A4E5B1E0AA0C48
:1016C000BB1CAA0CBB1CAA0DBB1D0E940B36A1E7BC
:1016D000B3E0ED91FC91AEE5B3E00D91112748E048
:1016E00050E00E94CF32ADE0B2E0A00FB11F98E011
:1016F0007BE70E943136A7E3B3E0EAE3F4E70E9418
:101700005C3611F00C94920B0E94AB298FEB11E028
:101710000E947430E2E4F4E70E945E3088EC90E0CE
:101720000E946C31A7E3B3E0E8E5F4E70E945C3681
:1017300011F00C94AD0BEEE5F4E70E9445300E94E9
:101740004C308FEB11E00E947430E8E6F4E70E9421
:101750005E3088EC90E00E946C31A7E3B3E0EEE7E6
:10176000F4E70E945C3611F00C94A40C81E08093A5
:101770005E0300915E03093018F011F00C94920C96
:1017800000915E0340E1049FACE6B3E00C9200E000
:1017900010E020E030E0ACE6B3E04C91552766273E
:1017A00077270E945735ADE6B3E00D931D932D9337
:1017B0003D9300E910E020E030E0ACE6B3E04C916E
:1017C0005527662777270E945735A1E7B3E00D9389
:1017D0001D932D933D9380E0AEE5B3E00D9111276D
:1017E00041E150E00E94CF32ABE6B1E0A00FB11F63
:1017F0008D9388278C9380E0AEE5B3E00D9111279F
:1018000048E050E00E94CF32ADE0B2E0A00FB11F3F
:101810008D9388278C93A5E6B3E00E944D33A5E60F
:10182000B3E00D911C910F3050E015071CF011F042
:101830000C948A0CADE6B3E00D911D912D913C9175
:10184000A5E6B3E04D915D9157FB1EF46FEF7FEF7E
:1018500002C0662777270E945735A8E6B3E00D93AC
:101860001D932D933D93A8E6B3E0ED91FC91AEE579
:10187000B3E00D91112741E150E00E94CF32ABE679
:10188000B1E0A00FB11F91E17BE70E943136A1E7E3
:10189000B3E00D911D912D913C91A5E6B3E04D91E2
:1018A0005D9157FB1EF46FEF7FEF02C0662777272D
:1018B0000E945735A8E6B3E00D931D932D933D93F9
:1018C000A8E6B3E0ED91FC91AEE5B3E00D911127F0
:1018D00048E050E00E94CF32ADE0B2E0A00FB11F6F
:1018E00098E07BE70E943136AEE5B3E0AD90BB24D3
:1018F000A4E5B1E0AA0CBB1CAA0CBB1CAA0DBB1D25
:10190000E6E2F3E70E943A33A5E6B3E00E94B92F7E
:101910000C940F0CAEE5B3E08C918F5F8C9310F4B8
:101920000C94B90BE8E8F4E70E9445300E944C3073
:101930008FEB11E00E947430E0E9F4E70E945E3022
:1019400088EC90E00E946C3118990C94C20C0E94B3
:101950006530439A3A9AE0E2F3E080E590E001973F
:10196000429A0E945C3142980E945C31482F492B78
:10197000B1F78CED95E00E946C317091CC027064EF
:101980007093CC0243980C94C9098091C1008F7365
:101990008093C100A5E6B2E00E944D33A7E6B2E015
:1019A0000E944D3385E085BD18990C94150D2B9A36
:1019B000A5E6B2E00E944D33A7E6B2E00E944D33A7
:1019C00085E085BDA8ECB2E00E94B92FACECB2E096
:1019D0008C9187FB81E00EF480E08F93A0ECB2E065
:1019E0008C9180FB81E00EF480E09F9189238F939E
:1019F000A8ECB2E00D911C91033050E0150780E097
:101A00000CF081E09F918923882311F40C94130D2D
:101A10007091C00271607093C0020E942D15A8ECF5
:101A2000B2E00E944D330C941E0D7091C0027E7F77
:101A30007093C002A8ECB2E00E944D33A0ECB2E07B
:101A40008C9182FB16F00C94340D7091C0027B7F58
:101A50007093C002882785BDACECB2E08C9184FB0A
:101A600016F40C94340D2B98A0ECB2E08C9181FB11
:101A700081E00EF080E08F93A0ECB2E08C9180FBCF
:101A800081E00EF480E09F918923882311F40C9467
:101A9000970DA7EDB2E00D911C91003050E01507B5
:101AA0001CF011F00C94560D0C94640DA7EDB2E0EF
:101AB0000E944D337091CC027E7F7093CC020E94C5
:101AC000072488278093B1007091C0027D7F7093B6
:101AD000C0027091C00271607093C0023A9AE8EE41
:101AE000F3E084EF91E00197429A0E945C314298C2
:101AF0000E945C31482F492BB1F7A0ECB2E08C91E9
:101B000083FB882780F9809580FBA0ECB2E08C9164
:101B100083F98C93A0ECB2E08C9183FB16F00C94CB
:101B2000970D83E090E0A7EDB2E08D939C930C9429
:101B3000D901F894FFCF0F921F922F923F924F92AC
:101B40005F927F92AF92BF920F931F932F933F9319
:101B50004F935F936F937F938F939F93AF93BF93B5
:101B6000CF93DF93EF93FF938FB78F930E940E3045
:101B7000082F003018F011F00C94C00D0C94E20DF9
:101B80000E941430A5E7B3E08C93009175030A30EE
:101B900081E009F480E08F93009175030D3081E0BE
:101BA00009F480E09F918923882311F40C94E20DBD
:101BB000A5E7B3E08C91A6E1B3E00E9407308D93D6
:101BC00088278C93009175030A3011F00C94F70D5F
:101BD0007091DB0270647093DB02E6E1F3E0A7E34F
:101BE000B3E00E940636A6E1B3E00E944D338F9128
:101BF0008FBFFF91EF91DF91CF91BF91AF919F91F7
:101C00008F917F916F915F914F913F912F911F9194
:101C10000F91BF90AF907F905F904F903F902F902B
:101C20001F900F9008950F921F922F923F924F9204
:101C30005F927F92AF92BF920F931F932F933F9328
:101C40004F935F936F937F938F939F93AF93BF93C4
:101C5000CF93DF93EF93FF938FB78F9374E676BDA7
:101C6000A5E6B2E00E94B92FA5E6B2E00D911C9165
:101C7000043650E015070CF002C00C94470EA5E6A0
:101C8000B2E00E944D33A7E6B2E00E94B92FA7E66A
:101C9000B2E00D911C91053050E015070CF002C028
:101CA0000C945B0EA7E6B2E00E944D337091C00227
:101CB00074607093C002A3E2B0E00C9104FB81E079
:101CC0000EF480E08F93A0ECB2E08C9181FB81E078
:101CD0000EF480E09F918923882311F40C94860EE2
:101CE000AAECB2E00E94B92FAAECB2E00D911C91CF
:101CF000083C50E015070CF002C00C94840E709163
:101D0000C00272607093C0020C948A0EAAECB2E01A
:101D10000E944D338F918FBFFF91EF91DF91CF9153
:101D2000BF91AF919F918F917F916F915F914F91F3
:101D30003F912F911F910F91BF90AF907F905F9037
:101D40004F903F902F901F900F9018950F921F92D9
:101D50002F923F924F925F927F92AF92BF920F93DA
:101D60001F932F933F934F935F936F937F938F9323
:101D70009F93AF93BF93CF93DF93EF93FF938FB76F
:101D80008F9374E67093B200A3EDB2E00E94B92F76
:101D9000A9EDB2E00E94B92FA3E2B0E00C9104FBE0
:101DA00081E00EF480E08F93ABEDB2E08C9187FB85
:101DB00081E00EF480E09F9189238F93ACECB2E038
:101DC0008C9180FB81E00EF080E09F918923882335
:101DD00011F40C94000F7091DB0270687093DB02B9
:101DE000A5EDB2E00E944D337091CC027D7F7093DF
:101DF000CC027091CC027E7F7093CC020E940724AB
:101E0000A9EDB2E00D911C91083C50E015070CF0D3
:101E100002C00C941B0FA9EDB2E00E944D33ABED54
:101E2000B2E08C9187FB16F00C941B0F7091DB02D3
:101E30007F777093DB02A3EDB2E00D911C91043625
:101E400050E015070CF002C00C94320FA3EDB2E085
:101E50000E944D33A5EDB2E00E94B92FA4E1B3E09A
:101E60000E94B92FA5EDB2E00D911C91043B50E00A
:101E700015070CF002C00C94460F7091CC027260F2
:101E80007093CC02A5EDB2E00E944D33A7EDB2E015
:101E90000D911C91003050E015071CF011F00C94CE
:101EA000530F0C94780FACECB2E08C9181FB81E085
:101EB0000EF080E08F93ACECB2E08C9180FB81E07F
:101EC0000EF480E09F918923882311F40C94760FFF
:101ED0007091CC027D7F7093CC027091CC027160C6
:101EE0007093CC02A7EDB2E00E94C02F0C948B0F30
:101EF000A7EDB2E00E944D337091CC027E7F7093CB
:101F0000CC027091CC02777F7093CC020E940724A0
:101F100088278093B100A4E1B3E00D911C910835AE
:101F200052E0150711F00C94A80FA7EDB2E00E9443
:101F30004D337091CC027E7F7093CC027091CC02B5
:101F4000777F7093CC020E94072488278093B1008A
:101F50008F918FBFFF91EF91DF91CF91BF91AF91A3
:101F60009F918F917F916F915F914F913F912F91B1
:101F70001F910F91BF90AF907F905F904F903F90D7
:101F80002F901F900F9018950E943F3910ED0E94DE
:101F9000573910E00E9457390E943F3911ED0E94D5
:101FA00057390E947639A5E3B1E01C930E94763937
:101FB000A6E3B1E01C930E947639A7E3B1E01C933D
:101FC0000E947639ABE6B2E01C930E947639A8E312
:101FD000B1E01C930E947639A9E3B1E01C930E9402
:101FE0007439AAE3B1E01C930E944E3990913501F7
:101FF0000E945231A5E3B1E08C93909136010E948A
:102000005231A6E3B1E08C93909137010E94523196
:10201000A7E3B1E08C93909138010E945231A8E37C
:10202000B1E08C93909139010E945231A9E3B1E063
:102030008C9390913A010E945231AAE3B1E08C93C3
:102040000895809138010E944B31A8E3B1E08C9350
:10205000809139010E944B31A9E3B1E08C938091CA
:102060003A010E944B31AAE3B1E08C930E943F39C0
:1020700010ED0E94573914E00E9457391091380131
:102080000E945739109139010E94573910913A0135
:102090000E9457390E944E390895809135010E945F
:1020A0004B31A5E3B1E08C93809136010E944B3116
:1020B000A6E3B1E08C93809137010E944B31A7E3F6
:1020C000B1E08C930E943F3910ED0E94573910E027
:1020D0000E945739109135010E94573910913601ED
:1020E0000E945739109137010E9457390E944E398A
:1020F00008958FE7A881B9811C910E94743080E017
:102100000E94C23082E00E94C23083E00E94C2304E
:1021100086E00E94C2308FEBA881B9811C910E9499
:10212000743081E00E94C230E0E8F3E70E945E3044
:1021300087E00E94C23083E9A881B9811C910E9486
:10214000743080E00E94C230E0E8F3E70E945E3025
:1021500086E00E94C23083EDA881B9811C910E9463
:10216000743081E00E94C23084E00E94C23085E079
:102170000E94C23087E00E94C23008958FE7A88194
:10218000B9811C910E947430E0E8F3E70E945E3050
:1021900086E00E94C230E4E8F3E70E945E308FEBF5
:1021A000A881B9811C910E947430E0E8F3E70E9495
:1021B0005E3087E00E94C230E4E8F3E70E945E30C0
:1021C00083E9A881B9811C910E947430E0E8F3E7AB
:1021D0000E945E3086E00E94C230E4E8F3E70E948D
:1021E0005E3083EDA881B9811C910E947430E0E8D3
:1021F000F3E70E945E3087E00E94C230E4E8F3E734
:102200000E945E3008958FE7A881B9811C910E94D9
:102210007430E4E8F3E70E945E3082E00E94C2304E
:1022200083E00E94C23086E00E94C2308FEBA8811A
:10223000B9811C910E947430E4E8F3E70E945E309B
:1022400084E00E94C23085E00E94C23087E00E9494
:10225000C23083E9A881B9811C910E94743080E06A
:102260000E94C230E6EAF4E70E945E3083EDA88166
:10227000B9811C910E94743081E00E94C23084E0D8
:102280000E94C23085E00E94C230E4E8F3E70E9479
:102290005E3008958FE7A881B9811C910E94743047
:1022A000E4E8F3E70E945E3082E00E94C23083E0FF
:1022B0000E94C23086E00E94C2308FEBA881B981B3
:1022C0001C910E947430E4E8F3E70E945E3084E0E1
:1022D0000E94C23085E00E94C23087E00E94C23076
:1022E00083E9A881B9811C910E947430E6EAF4E781
:1022F0000E945E3086E00E94C23083EDA881B981E1
:102300001C910E947430E4E8F3E70E945E3084E0A0
:102310000E94C23085E00E94C23087E00E94C23035
:1023200008958FE7A881B9811C910E94743080E0E4
:102330000E94C230E0E8F3E70E945E3086E00E942F
:10234000C2308FEBA881B9811C910E94743081E06A
:102350000E94C23084E00E94C23085E00E94C230F8
:1023600087E00E94C23083E9A881B9811C910E9454
:102370007430E6EAF4E70E945E3086E00E94C230E4
:1023800083EDA881B9811C910E947430E6EAF4E7DC
:102390000E945E3087E00E94C23008958FE7A881D6
:1023A000B9811C910E94743080E00E94C23082E0AA
:1023B0000E94C23083E00E94C230E4E8F3E70E944A
:1023C0005E308FEBA881B9811C910E94743081E04E
:1023D0000E94C23084E00E94C23085E00E94C23078
:1023E000E4E8F3E70E945E3083E9A881B9811C919B
:1023F0000E947430E6EAF4E70E945E3086E00E94B4
:10240000C23083EDA881B9811C910E947430E4E848
:10241000F3E70E945E3084E00E94C23085E00E94B3
:10242000C23087E00E94C23008958FE7A881B98149
:102430001C910E94743080E00E94C23082E00E94B1
:10244000C23083E00E94C230E4E8F3E70E945E30CD
:102450008FEBA881B9811C910E94743081E00E94A9
:10246000C23084E00E94C23085E00E94C230E4E8BD
:10247000F3E70E945E3083E9A881B9811C910E9434
:10248000743080E00E94C230E0E8F3E70E945E30E2
:1024900086E00E94C23083EDA881B9811C910E9420
:1024A000743081E00E94C23084E00E94C23085E036
:1024B0000E94C23087E00E94C23008958FE7A88151
:1024C000B9811C910E947430E4E8F3E70E945E3009
:1024D00082E00E94C23083E00E94C23086E00E9407
:1024E000C2308FEBA881B9811C910E947430E6EA5A
:1024F000F4E70E945E3087E00E94C23083E9A88141
:10250000B9811C910E947430E6EAF4E70E945E30C3
:1025100086E00E94C23083EDA881B9811C910E949F
:102520007430E6EAF4E70E945E3087E00E94C23031
:1025300008958FE7A881B9811C910E94743080E0D2
:102540000E94C23082E00E94C23083E00E94C2300A
:1025500086E00E94C2308FEBA881B9811C910E9455
:10256000743081E00E94C23084E00E94C23085E075
:102570000E94C23087E00E94C23083E9A881B981FD
:102580001C910E94743080E00E94C230E0E8F3E7C2
:102590000E945E3086E00E94C23083EDA881B9813E
:1025A0001C910E94743081E00E94C23084E00E943D
:1025B000C23085E00E94C23087E00E94C230089598
:1025C0008FE7A881B9811C910E94743080E00E943D
:1025D000C23082E00E94C23083E00E94C23086E0B6
:1025E0000E94C2308FEBA881B9811C910E94743087
:1025F00081E00E94C23084E00E94C23085E00E94E7
:10260000C23087E00E94C23083E9A881B9811C9161
:102610000E947430E6EAF4E70E945E3086E00E9491
:10262000C23083EDA881B9811C910E947430E4E826
:10263000F3E70E945E3084E00E94C23085E00E9491
:10264000C23087E00E94C23008958FE7A881B98127
:102650001C910E947430E6EAF4E70E945E308FEB32
:10266000A881B9811C910E947430E6EAF4E70E94C7
:102670005E3083E9A881B9811C910E94743087E0A3
:102680000E94C23087E00E94C230E4E8F3E70E9473
:102690005E3083EDA881B9811C910E947430E6EA16
:1026A000F4E70E945E300895EAE2F3E70E941938E9
:1026B000EEE5F2E0A190BB24E4E5F1E0AA0CBB1C3E
:1026C000AA0CBB1CEA0DFB1D0E94A7360E947D3799
:1026D000EDE0F0E0ADE4B1E00E940B36EEE2F3E7AE
:1026E0000E941938EDE4F1E00E94A7360E94CB3732
:1026F000EDE0F0E0ADE4B1E00E940B36E2E3F3E799
:102700000E941938EDE4F1E00E94A7360E947D375F
:10271000EDE0F0E0ADE4B1E00E940B36E6E3F3E774
:102720000E941938EDE4F1E00E94A7360E94243798
:10273000EDE0F0E0ADE4B1E00E940B36EDE4F1E055
:102740000E94FA38EDE0F0E00E94B736A1E5B1E072
:10275000DD92EC92A1E5B1E011968C91A3E5B1E098
:102760008C93709153017F7B70935301709153014F
:102770007F7770935301A1E5B1E08C91A4E5B1E0BE
:102780008C9380E18093550182E18093560180E033
:10279000809357010E943F3910EC0E9457391091E5
:1027A00053010E945739109154010E9457391091DA
:1027B00055010E945739109156010E9457391091C6
:1027C00057010E9457390E944E39AEE5B2E00D9193
:1027D000112741E150E00E94CF32ABE6B1E0A00FFB
:1027E000B11F0E945636082F003011F40C941C14AF
:1027F0008FEB11E00E947430EEE5F2E0A0E0B6E06D
:102800000E947F350E945630EAEAF4E70E945E306B
:102810008FEB14E00E947430AEE5B2E00D91112709
:1028200041E150E00E94CF32ABE6B1E0A00FB11F12
:102830000E9458300C9434148FEB11E00E947430D5
:10284000EEE5F2E0A0E0B6E00E947F350E9456304F
:10285000EAEAF4E70E945E308FEB14E00E947430E5
:10286000EEEBF4E70E945E30EEE5F2E0A190BB24CF
:10287000E4E5F1E0AA0CBB1CAA0CBB1CEA0DFB1D95
:102880000E94A736EAE3F3E70E9419380E948E36C9
:1028900081E008F080E08F93EEE5F2E0A190BB24A8
:1028A000E4E5F1E0AA0CBB1CAA0CBB1CEA0DFB1D65
:1028B0000E94A736EEE3F3E70E9419380E948E3695
:1028C00080E010F009F081E09F91892B882311F4BA
:1028D0000C947C1483E911E00E947430E6ECF4E778
:1028E0000E945E3083E911E00E947430ECEDF4E761
:1028F0000E945E300C949A1483E911E00E947430B7
:10290000E6ECF4E70E945E3083E914E00E94743044
:10291000AEE5B2E00D91112748E050E00E94CF32C1
:10292000ADE0B2E0A00FB11F0E945830ECEEF4E72A
:102930000E945E300895EAE2F3E70E941938EEE55E
:10294000F2E0A190BB24E4E5F1E0AA0CBB1CAA0CC8
:10295000BB1CEA0DFB1D0E94A7360E947D37EDE0EF
:10296000F0E0ADE4B1E00E940B36EEE2F3E70E9446
:102970001938EDE4F1E00E94A7360E94CB37EDE074
:10298000F0E0ADE4B1E00E940B36E2E3F3E70E9431
:102990001938EDE4F1E00E94A7360E947D37EDE0A2
:1029A000F0E0ADE4B1E00E940B36E6E3F3E70E940D
:1029B0001938EDE4F1E00E94A7360E942437EDE0DB
:1029C000F0E0ADE4B1E00E940B36EDE4F1E00E94EE
:1029D000FA38EDE0F0E00E94B736A1E5B1E0DD9213
:1029E000EC92A1E5B1E011968C91A3E5B1E08C9356
:1029F000709153017F7B7093530170915301706804
:102A000070935301A1E5B1E08C91A4E5B1E08C9302
:102A100080E18093550182E18093560180E08093AC
:102A200057010E943F3910EC0E9457391091530111
:102A30000E945739109154010E9457391091550145
:102A40000E945739109156010E9457391091570131
:102A50000E9457390E944E3908950E946530709146
:102A6000CC027F7D7093CC0283ED11E00E94743024
:102A7000E2EFF4E70E945E30882785BD81E090E0B8
:102A8000ADECB2E08D939C938FE711E00E9474301F
:102A9000E8E0F5E70E945E307091CC027F7B709396
:102AA000CC023A9AE8EBFBE084E690E00197429A88
:102AB0000E945C3142980E945C31482F492BB1F74B
:102AC00088EE93E00E946C31ACECB2E08C9186FB16
:102AD00016F40C94782319990C94DB15ADECB2E044
:102AE0000E94B92FADECB2E00D911C91053050E081
:102AF00015071CF011F00C947F150C94851581E0DE
:102B000090E0ADECB2E08D939C93ADECB2E00D9112
:102B10001C91013050E0150711F00C9499158FE7C6
:102B200011E00E947430E8E0F5E70E945E300C94FA
:102B3000D715023050E0150711F00C94A9158FE756
:102B400011E00E947430EEE1F5E70E945E300C94D3
:102B5000D715033050E0150711F00C94B9158FE725
:102B600011E00E947430E4E3F5E70E945E300C94BB
:102B7000D715043050E0150711F00C94C9158FE7F4
:102B800011E00E947430EAE4F5E70E945E300C9494
:102B9000D715053050E0150711F00C94D7158FE7C5
:102BA00011E00E947430E0E6F5E70E945E308CE2AE
:102BB00091E00E946C311A990C944916ADECB2E088
:102BC0000E94C02FADECB2E00D911C91013050E09D
:102BD00015070CF402C00C94F31585E090E0ADEC01
:102BE000B2E08D939C93ADECB2E00D911C9101305D
:102BF00050E0150711F00C9407168FE711E00E94C2
:102C00007430E8E0F5E70E945E300C94451602301F
:102C100050E0150711F00C9417168FE711E00E9491
:102C20007430EEE1F5E70E945E300C9445160330F7
:102C300050E0150711F00C9427168FE711E00E9461
:102C40007430E4E3F5E70E945E300C9445160430DE
:102C500050E0150711F00C9437168FE711E00E9431
:102C60007430EAE4F5E70E945E300C9445160530B6
:102C700050E0150711F00C9445168FE711E00E9403
:102C80007430E0E6F5E70E945E308CE291E00E944D
:102C90006C3118990C9476230E946530ADECB2E04B
:102CA0000D911C91013050E0150711F00C94F719AB
:102CB0003A9AE8EEF3E082E390E00197429A0E94AC
:102CC0005C3142980E945C31482F492BB1F78FE765
:102CD00011E00E947430E8E0F5E70E945E308FEB6F
:102CE00011E00E947430E6E7F5E70E945E3083ED64
:102CF00011E00E947430ECE8F5E70E945E300E941B
:102D0000C40FA7E3B1E08C91A1E7B2E08D938827CF
:102D10008C93A6E3B1E08C91A3E7B2E08D93882772
:102D20008C93A5E3B1E08C91A5E7B2E08D93882761
:102D30008C93E1E7F2E0A3E8B2E00E947835E3E7A4
:102D4000F2E0A6E8B2E00E947835E5E7F2E0A9E813
:102D5000B2E00E947835A3E8B2E00E945636082F10
:102D6000013011F00C94C21683E917E00E94743010
:102D7000E6E6F3E70E945E30A3E8B2E00E94583036
:102D80000C94CA1683E917E00E947430A3E8B2E0FD
:102D90000E945830ACECB2E08C9186FB16F40C9497
:102DA00082178FEB17E00E947430E2EAF5E70E9489
:102DB0005E308AEF90E00E946C318FEB17E00E944A
:102DC0007430E0E8F3E70E945E3084E690E00E9411
:102DD0006C31A3E2B0E00C9101FB81E00EF480E0E5
:102DE0008F93A1E7B2E00D911C91073150E01507D8
:102DF00080E00CF481E09F918923882311F40C94E6
:102E00002A17A1E7B2E00E94B92FE1E7F2E0A3E8B8
:102E1000B2E00E947835A3E8B2E00E945636082F4F
:102E2000013011F00C94221783E917E00E947430EE
:102E3000E6E6F3E70E945E30A3E8B2E00E94583075
:102E40000C942A1783E917E00E947430A3E8B2E0DB
:102E50000E945830A3E2B0E00C9102FB81E00EF436
:102E600080E08F93A1E7B2E00D911C91003050E01B
:102E7000150780E014F009F081E09F9189238823F1
:102E800011F40C946C17A1E7B2E00E94C02FE1E7A7
:102E9000F2E0A3E8B2E00E947835A3E8B2E00E9435
:102EA0005636082F013011F00C94641783E917E0AF
:102EB0000E947430E6E6F3E70E945E30A3E8B2E0D9
:102EC0000E9458300C946C1783E917E00E9474300C
:102ED000A3E8B2E00E94583018990C94801783E957
:102EE00019E00E947430E6EAF5E70E945E307091C6
:102EF000CC0270647093CC0288EC90E00E946C313C
:102F00000C94CA168FEB17E00E947430E2EAF5E7E2
:102F10000E945E307091CC027F7B7093CC02A6E859
:102F2000B2E00E945636082F013011F00C94A6171B
:102F300083E91AE00E947430E6E6F3E70E945E300F
:102F4000A6E8B2E00E9458300C94AE1783E91AE06C
:102F50000E947430A6E8B2E00E945830ACECB2E0B7
:102F60008C9186FB16F40C9466188FEB1AE00E9485
:102F70007430E8EAF5E70E945E308AEF90E00E9444
:102F80006C318FEB1AE00E947430E0E8F3E70E94A6
:102F90005E3084E690E00E946C31A3E2B0E00C91D8
:102FA00001FB81E00EF480E08F93A3E7B2E00D9186
:102FB0001C910B3350E0150780E00CF481E09F91E9
:102FC0008923882311F40C940E18A3E7B2E00E9421
:102FD000B92FE3E7F2E0A6E8B2E00E947835A6E870
:102FE000B2E00E945636082F013011F00C940618FA
:102FF00083E91AE00E947430E6E6F3E70E945E304F
:10300000A6E8B2E00E9458300C940E1883E91AE04A
:103010000E947430A6E8B2E00E945830A3E2B0E00B
:103020000C9102FB81E00EF480E08F93A3E7B2E005
:103030000D911C91003050E0150780E014F009F06C
:1030400081E09F918923882311F40C945018A3E701
:10305000B2E00E94C02FE3E7F2E0A6E8B2E00E94EF
:103060007835A6E8B2E00E945636082F013011F0FC
:103070000C94481883E91AE00E947430E6E6F3E7FE
:103080000E945E30A6E8B2E00E9458300C945018BE
:1030900083E91AE00E947430A6E8B2E00E9458303A
:1030A00018990C94641883E91CE00E947430E6EAD5
:1030B000F5E70E945E307091CC0270647093CC0290
:1030C00088EC90E00E946C310C94AE178FEB1AE004
:1030D0000E947430E8EAF5E70E945E307091CC02FD
:1030E0007F7B7093CC02A9E8B2E00E945636082F8D
:1030F000013011F00C948A1883E91DE00E947430AD
:10310000E6E6F3E70E945E30A9E8B2E00E9458309C
:103110000C94921883E91DE00E947430A9E8B2E093
:103120000E945830ACECB2E08C9186FB16F40C9403
:10313000EA198FEB1DE00E947430ECEAF5E70E947B
:103140005E308AEF90E00E946C318FEB1DE00E94B0
:103150007430E0E8F3E70E945E3084E690E00E947D
:103160006C31A3E2B0E00C9101FB81E00EF480E051
:103170008F93A5E7B2E00D911C910B3350E015073A
:1031800080E00CF481E09F918923882311F40C9452
:10319000F218A5E7B2E00E94B92FE5E7F2E0A9E84E
:1031A000B2E00E947835A9E8B2E00E945636082FB6
:1031B000013011F00C94EA1883E91DE00E9474308C
:1031C000E6E6F3E70E945E30A9E8B2E00E945830DC
:1031D0000C94F21883E91DE00E947430A9E8B2E073
:1031E0000E945830A3E2B0E00C9102FB81E00EF4A3
:1031F00080E08F93A5E7B2E00D911C91003050E084
:10320000150780E014F009F081E09F91892388235D
:1032100011F40C943419A5E7B2E00E94C02FE5E741
:10322000F2E0A9E8B2E00E947835A9E8B2E00E9495
:103230005636082F013011F00C942C1983E91DE04B
:103240000E947430E6E6F3E70E945E30A9E8B2E03F
:103250000E9458300C94341983E91DE00E947430A8
:10326000A9E8B2E00E94583018990C94E8197091BE
:10327000CC0270647093CC023A9AE0EDF7E082E3FE
:1032800090E00197429A0E945C3142980E945C3122
:10329000482F492BB1F7A3E8B2E00E945636082F19
:1032A000013011F00C94701984E00E94C932E3E8F7
:1032B000F2E0A881B9810E940636A3E8B2E0E6E612
:1032C000F3E70E94FC32E881F981A3E8B2E00E94B2
:1032D00007300E94063684E0481A80E0580A229699
:1032E000A6E8B2E00E945636082F013011F00C9487
:1032F000951984E00E94C932E6E8F2E0A881B9811C
:103300000E940636A6E8B2E0E6E6F3E70E94FC3249
:10331000E881F981A6E8B2E00E9407300E940636F3
:1033200084E0481A80E0580A2296A9E8B2E00E9498
:103330005636082F013011F00C94BA1984E00E941F
:10334000C932E9E8F2E0A881B9810E940636A9E80D
:10335000B2E0E6E6F3E70E94FC32E881F981A9E8F1
:10336000B2E00E9407300E94063684E0481A80E0EE
:10337000580A2296E3E8F2E0ADE9B2E00E94063690
:10338000ADE9B2E00E940730E6EAF5E70E94FC32C0
:10339000E6E8F2E0ADE9B2E00E9407300E940636AE
:1033A000ADE9B2E00E940730E6EAF5E70E94FC32A0
:1033B000E9E8F2E0ADE9B2E00E9407300E9406368B
:1033C000EDE9F2E0A4E4B1E00E9406360E94773213
:1033D0000C9492187091CC0270627093CC020E948F
:1033E000653084EF91E00E946C310C9465230230CB
:1033F00050E0150711F00C94F41E3A9AE8EEF3E051
:1034000082E390E00197429A0E945C3142980E94C8
:103410005C31482F492BB1F78FE711E00E947430DF
:10342000EEE1F5E70E945E308FEB11E00E94743010
:10343000E0EBF5E70E945E3083ED11E00E9474300E
:10344000ECE8F5E70E945E300E94C40FA8E3B1E00B
:103450008C91A7E7B2E08D9388278C93A9E3B1E024
:103460008C91A9E7B2E08D9388278C93AAE3B1E011
:103470008C91ABE7B2E08D9388278C93E7E7F2E07D
:10348000ACE8B2E00E947835E9E7F2E0AFE8B2E0FC
:103490000E947835EBE7F2E0A2E9B2E00E947835CD
:1034A000ABE7B2E00D911C9144E050E00E94CD2FBB
:1034B000A9E6B2E00D931C93A9E6B2E00D911C9130
:1034C000003050E0150711F00C946D1A7091C00295
:1034D00070687093C0020C94721A7091C0027F776A
:1034E0007093C002AFE8B2E00E945636082F013058
:1034F00011F00C94891A83E917E00E947430E6E613
:10350000F3E70E945E30AFE8B2E00E9458300C94BE
:10351000911A83E917E00E947430AFE8B2E00E948C
:103520005830ACECB2E08C9186FB16F40C94491B3D
:103530008FEB17E00E947430E8EAF5E70E945E30F6
:103540008AEF90E00E946C318FEB17E00E9474309C
:10355000E0E8F3E70E945E3084E690E00E946C3180
:10356000A3E2B0E00C9101FB81E00EF480E08F93C8
:10357000A9E7B2E00D911C910C3050E0150780E0F6
:103580000CF481E09F918923882311F40C94F11AA3
:10359000A9E7B2E00E94B92FE9E7F2E0AFE8B2E0B4
:1035A0000E947835AFE8B2E00E945636082F01300D
:1035B00011F00C94E91A83E917E00E947430E6E6F2
:1035C000F3E70E945E30AFE8B2E00E9458300C94FE
:1035D000F11A83E917E00E947430AFE8B2E00E946C
:1035E0005830A3E2B0E00C9102FB81E00EF480E0E1
:1035F0008F93A9E7B2E00D911C91013050E01507BF
:1036000080E014F009F081E09F918923882311F470
:103610000C94331BA9E7B2E00E94C02FE9E7F2E067
:10362000AFE8B2E00E947835AFE8B2E00E945636CB
:10363000082F013011F00C942B1B83E917E00E9436
:103640007430E6E6F3E70E945E30AFE8B2E00E9435
:1036500058300C94331B83E917E00E947430AFE8B4
:10366000B2E00E94583018990C94471B83E919E086
:103670000E947430E6ECF5E70E945E307091CC0257
:1036800070647093CC0288EC90E00E946C310C94D2
:10369000911A8FEB17E00E947430E8EAF5E70E9478
:1036A0005E307091CC027F7B7093CC02ACE8B2E0CC
:1036B0000E945636082F013011F00C946D1B83E9DF
:1036C0001AE00E947430E6E6F3E70E945E30ACE850
:1036D000B2E00E9458300C94751B83E91AE00E94F6
:1036E0007430ACE8B2E00E945830ACECB2E08C919F
:1036F00086FB16F40C94631D8FEB1AE00E94743065
:10370000E8ECF5E70E945E308AEF90E00E946C31B1
:103710008FEB1AE00E947430E0E8F3E70E945E301D
:1037200084E690E00E946C3119990C940B1DA9E776
:10373000B2E00D911C91013050E0150781E009F0D5
:1037400080E08F93A9E7B2E00D911C91033050E027
:10375000150781E009F080E09F91892B8F93A9E7FD
:10376000B2E00D911C91053050E0150781E009F0A1
:1037700080E09F91892B8F93A9E7B2E00D911C9176
:10378000073050E0150781E009F080E09F91892B18
:103790008F93A9E7B2E00D911C91083050E0150716
:1037A00081E009F080E09F91892B8F93A9E7B2E037
:1037B0000D911C910A3050E0150781E009F080E07E
:1037C0009F91892B8F93A9E7B2E00D911C910C304A
:1037D00050E0150781E009F080E09F91892B882354
:1037E00011F40C94271CA7E7B2E00D911C910F3146
:1037F00050E015070CF402C00C94271CA7E7B2E0B8
:103800000E94B92FE7E7F2E0ACE8B2E00E94783519
:10381000ACE8B2E00E945636082F013011F00C944B
:103820001F1C83E91AE00E947430E6E6F3E70E9469
:103830005E30ACE8B2E00E9458300C94271C83E95B
:103840001AE00E947430ACE8B2E00E945830A9E758
:10385000B2E00D911C91043050E0150781E009F0B1
:1038600080E08F93A9E7B2E00D911C91063050E003
:10387000150781E009F080E09F91892B8F93A9E7DC
:10388000B2E00D911C91093050E0150781E009F07C
:1038900080E09F91892B8F93A9E7B2E00D911C9155
:1038A0000B3050E0150781E009F080E09F91892BF3
:1038B000882311F40C94901CA7E7B2E00D911C91A1
:1038C0000E3150E015070CF402C00C94901CA7E7D1
:1038D000B2E00E94B92FE7E7F2E0ACE8B2E00E9464
:1038E0007835ACE8B2E00E945636082F013011F06E
:1038F0000C94881C83E91AE00E947430E6E6F3E732
:103900000E945E30ACE8B2E00E9458300C94901CEB
:1039100083E91AE00E947430ACE8B2E00E945830AB
:10392000A9E7B2E00D911C91023050E0150711F0AB
:103930000C940B1DA0ECB2E08C9187FB16F00C945C
:10394000D71CA7E7B2E00D911C910D3150E015078F
:103950000CF402C00C94D51CA7E7B2E00E94B92F6A
:10396000E7E7F2E0ACE8B2E00E947835ACE8B2E01C
:103970000E945636082F013011F00C94CD1C83E9BB
:103980001AE00E947430E6E6F3E70E945E30ACE88D
:10399000B2E00E9458300C94D51C83E91AE00E94D2
:1039A0007430ACE8B2E00E9458300C940B1DA7E7CD
:1039B000B2E00D911C910C3150E015070CF402C0DF
:1039C0000C940B1DA7E7B2E00E94B92FE7E7F2E0E5
:1039D000ACE8B2E00E947835ACE8B2E00E9456361E
:1039E000082F013011F00C94031D83E91AE00E94A6
:1039F0007430E6E6F3E70E945E30ACE8B2E00E9485
:103A000058300C940B1D83E91AE00E947430ACE826
:103A1000B2E00E945830A3E2B0E00C9102FB81E0DA
:103A20000EF480E08F93A7E7B2E00D911C91013076
:103A300050E0150780E014F009F081E09F918923A0
:103A4000882311F40C944D1DA7E7B2E00E94C02F0B
:103A5000E7E7F2E0ACE8B2E00E947835ACE8B2E02B
:103A60000E945636082F013011F00C94451D83E951
:103A70001AE00E947430E6E6F3E70E945E30ACE89C
:103A8000B2E00E9458300C944D1D83E91AE00E9468
:103A90007430ACE8B2E00E94583018990C94611D63
:103AA00083E91CE00E947430E6ECF5E70E945E308A
:103AB0007091CC0270647093CC0288EC90E00E940C
:103AC0006C310C94751B8FEB1AE00E947430E8EC9B
:103AD000F5E70E945E307091CC027F7B7093CC0240
:103AE000A2E9B2E00E945636082F013011F00C9482
:103AF000871D83E91DE00E947430E6E6F3E70E942B
:103B00005E30A2E9B2E00E9458300C948F1D83E928
:103B10001DE00E947430A2E9B2E00E945830ACEC83
:103B2000B2E08C9186FB16F40C94E71E8FEB1DE03F
:103B30000E947430ECECF5E70E945E308AEF90E072
:103B40000E946C318FEB1DE00E947430E0E8F3E7D7
:103B50000E945E3084E690E00E946C31A3E2B0E007
:103B60000C9101FB81E00EF480E08F93ABE7B2E0B3
:103B70000D911C91003550E0150780E00CF481E0B8
:103B80009F918923882311F40C94EF1DABE7B2E0D9
:103B90000E94B92FEBE7F2E0A2E9B2E00E9478358B
:103BA000A2E9B2E00E945636082F013011F00C94C1
:103BB000E71D83E91DE00E947430E6E6F3E70E940A
:103BC0005E30A2E9B2E00E9458300C94EF1D83E908
:103BD0001DE00E947430A2E9B2E00E945830A3E2D6
:103BE000B0E00C9102FB81E00EF480E08F93ABE734
:103BF000B2E00D911C91003050E0150780E014F008
:103C000009F081E09F918923882311F40C94311EDF
:103C1000ABE7B2E00E94C02FEBE7F2E0A2E9B2E02E
:103C20000E947835A2E9B2E00E945636082F013092
:103C300011F00C94291E83E91DE00E947430E6E621
:103C4000F3E70E945E30A2E9B2E00E9458300C9483
:103C5000311E83E91DE00E947430A2E9B2E00E94A7
:103C6000583018990C94E51E7091CC0270647093D2
:103C7000CC023A9AE0EDF7E082E390E00197429AB5
:103C80000E945C3142980E945C31482F492BB1F769
:103C9000AFE8B2E00E945636082F013011F00C94C4
:103CA0006D1E84E00E94C932EFE8F2E0A881B9817C
:103CB0000E940636AFE8B2E0E6E6F3E70E94FC3287
:103CC000E881F981AFE8B2E00E9407300E94063631
:103CD00084E0481A80E0580A2296ACE8B2E00E94DC
:103CE0005636082F013011F00C94921E84E00E9489
:103CF000C932ECE8F2E0A881B9810E940636ACE84E
:103D0000B2E0E6E6F3E70E94FC32E881F981ACE834
:103D1000B2E00E9407300E94063684E0481A80E034
:103D2000580A2296A2E9B2E00E945636082F0130C6
:103D300011F00C94B71E84E00E94C932E2E9F2E06F
:103D4000A881B9810E940636A2E9B2E0E6E6F3E76F
:103D50000E94FC32E881F981A2E9B2E00E940730BA
:103D60000E94063684E0481A80E0580A2296EFE85E
:103D7000F2E0A6EAB2E00E940636A6EAB2E00E94AD
:103D80000730E6ECF5E70E94FC32ECE8F2E0A6EA48
:103D9000B2E00E9407300E940636A6EAB2E00E9416
:103DA0000730E6ECF5E70E94FC32E2E9F2E0A6EA31
:103DB000B2E00E9407300E940636E6EAF2E0ABE38A
:103DC000B1E00E9406360E945E320C948F1D709105
:103DD000CC0270627093CC020E94653084EF91E057
:103DE0000E946C310C946523033050E0150711F0EC
:103DF0000C9497213A9AE8EEF3E082E390E0019781
:103E0000429A0E945C3142980E945C31482F492BB3
:103E1000B1F78FE711E00E947430E4E3F5E70E9408
:103E20005E308FEB11E00E947430E0EDF5E70E9408
:103E30005E3083ED11E00E947430ECE8F5E70E94FB
:103E40005E30EFEAF2E002E0A8EBB2E00E94183642
:103E5000AFEAB2E00E945636EA2FFB2F33970FEFFE
:103E6000ABEBB2E00E941836A8EBB2E00E94C53579
:103E7000ADE7B2E00D931C93ABEBB2E00E94C53509
:103E8000AFE7B2E00D931C93ADE7B2E00D911C914A
:103E90000A3050E015070CF402C00C94611F83E94E
:103EA00019E00E947430E6E6F3E70E945E30EDE729
:103EB000F2E0A0E0B6E00E9478350E9456300C9403
:103EC0006D1F83E919E00E947430EDE7F2E0A0E095
:103ED000B6E00E9478350E945630ACECB2E08C918E
:103EE00086FB16F40C942D208FEB19E00E947430A1
:103EF000E2EAF5E70E945E3088EC90E00E946C31C7
:103F00008FEB19E00E947430E0E8F3E70E945E3026
:103F100080E590E00E946C31A3E2B0E00C9101FBDF
:103F200081E00EF480E08F93ADE7B2E00D911C913B
:103F3000073150E0150780E00CF481E09F91892360
:103F4000882311F40C94D11FADE7B2E00E94B92F81
:103F5000ADE7B2E00D911C910A3050E015070CF46A
:103F600002C00C94C51F83E919E00E947430E6E694
:103F7000F3E70E945E30EDE7F2E0A0E0B6E00E94D9
:103F800078350E9456300C94D11F83E919E00E94C5
:103F90007430EDE7F2E0A0E0B6E00E9478350E94D0
:103FA0005630A3E2B0E00C9102FB81E00EF480E019
:103FB0008F93ADE7B2E00D911C91003050E01507F2
:103FC00080E014F009F081E09F918923882311F4A7
:103FD0000C941720ADE7B2E00E94C02FADE7B2E02D
:103FE0000D911C910A3050E015070CF402C00C949E
:103FF0000B2083E919E00E947430E6E6F3E70E94A3
:104000005E30EDE7F2E0A0E0B6E00E9478350E9475
:1040100056300C94172083E919E00E947430EDE7C4
:10402000F2E0A0E0B6E00E9478350E945630189980
:104030000C942B2083E91BE00E947430E6EAF5E73C
:104040000E945E307091CC0270647093CC0288EC58
:1040500090E00E946C310C946D1F8FEB19E00E9470
:104060007430E2EAF5E70E945E307091CC027F7B0B
:104070007093CC02AFE7B2E00D911C910A3050E092
:1040800015070CF402C00C94572083E91CE00E9431
:104090007430E6E6F3E70E945E30EFE7F2E0A0E07E
:1040A000B6E00E9478350E9456300C94632083E974
:1040B0001CE00E947430EFE7F2E0A0E0B6E00E945E
:1040C00078350E945630ACECB2E08C9186FB16F449
:1040D0000C948A218FEB1CE00E947430E8EAF5E72B
:1040E0000E945E3088EC90E00E946C318FEB1CE007
:1040F0000E947430E0E8F3E70E945E3080E590E0D3
:104100000E946C31A3E2B0E00C9101FB81E00EF45F
:1041100080E08F93A3E7B2E00D911C910B3350E048
:10412000150780E00CF481E09F918923882311F426
:104130000C94CD20AFE7B2E00E94B92FE3E7F2E0A4
:10414000A6E8B2E00E947835AFE7B2E00D911C918D
:104150000A3050E015070CF402C00C94C12083E92A
:104160001CE00E947430E6E6F3E70E945E30EFE761
:10417000F2E0A0E0B6E00E9478350E9456300C9440
:10418000CD2083E91CE00E947430EFE7F2E0A0E06C
:10419000B6E00E9478350E945630A3E2B0E00C9160
:1041A00002FB81E00EF480E08F93AFE7B2E00D9167
:1041B0001C91003050E0150780E014F009F081E018
:1041C0009F918923882311F40C941321AFE7B2E067
:1041D0000E94C02FAFE7B2E00D911C910A3050E071
:1041E00015070CF402C00C94072183E91CE00E941F
:1041F0007430E6E6F3E70E945E30EFE7F2E0A0E01D
:10420000B6E00E9478350E9456300C94132183E961
:104210001CE00E947430EFE7F2E0A0E0B6E00E94FC
:1042200078350E94563018990C9488217091CC02F0
:1042300070647093CC023A9AE0EDF7E082E390E08C
:104240000197429A0E945C3142980E945C31482F4B
:10425000492BB1F7ADE7B2E00D911C910A3050E067
:1042600015070CF402C00C944521AFEAB2E0E6E673
:10427000F3E70E94FC32EDE7F2E0AFEAB2E00E9421
:1042800007300E9478350C944B21EDE7F2E0AFEA5D
:10429000B2E00E947835AFEAB2E00E940730E6EA69
:1042A000F5E70E94FC32AFE7B2E00D911C910A30B5
:1042B00050E015070CF402C00C947021AFEAB2E094
:1042C0000E940730E6E6F3E70E94FC32EFE7F2E0F7
:1042D000AFEAB2E00E9407300E9478350C94782152
:1042E000EFE7F2E0AFEAB2E00E9407300E947835D3
:1042F0007091CC02777F7093CC027091C00278608D
:104300007093C00283E090E0A7EDB2E08D939C93A0
:104310000C9463207091CC0270627093CC020E9466
:10432000653084EF91E00E946C310C946523043079
:1043300050E0150711F00C9444230E9465303A9A1E
:10434000E0EDF7E084E690E00197429A0E945C314C
:1043500042980E945C31482F492BB1F78FE711E05A
:104360000E947430EAE4F5E70E945E3083ED11E0CC
:104370000E947430ECE8F5E70E945E30A1EDB2E0F7
:104380008D919C91AEEBB2E08D939C93A1EDB2E048
:104390000D911C91013050E0150711F00C94DA21B9
:1043A0008FEB11E00E947430E6EEF5E70E945E307C
:1043B0000C940822023050E0150711F00C94EA2109
:1043C0008FEB11E00E947430ECEFF5E70E945E3055
:1043D0000C940822033050E0150711F00C94FA21D8
:1043E0008FEB11E00E947430E2E1F6E70E945E304C
:1043F0000C940822043050E0150711F00C940822A8
:104400008FEB11E00E947430E8E2F6E70E945E3024
:104410007091CC027F7B7093CC0284EF91E00E947C
:104420006C31ACECB2E08C9186FB16F40C94372323
:1044300019990C948C22AEEBB2E00E94B92FAEEB2E
:10444000B2E00D911C91043050E015071CF011F002
:104450000C942C220C94322281E090E0AEEBB2E07E
:104460008D939C93AEEBB2E00D911C91013050E026
:10447000150711F00C944B228FEB11E00E94743061
:10448000E6EEF5E70E945E307091C002777F709390
:10449000C0020C948822023050E0150711F00C94F1
:1044A00060228FEB11E00E947430ECEFF5E70E9480
:1044B0005E307091C00278607093C0020C948822C4
:1044C000033050E0150711F00C9475228FEB11E0CA
:1044D0000E947430E2E1F6E70E945E307091C00203
:1044E00078607093C0020C948822043050E0150765
:1044F00011F00C9488228FEB11E00E947430E8E2F6
:10450000F6E70E945E307091C00278607093C0023E
:104510008AEF90E00E946C311A990C94FE22AEEB67
:10452000B2E00E94C02FAEEBB2E00D911C910130C1
:1045300050E015070CF402C00C94A42284E090E033
:10454000AEEBB2E08D939C93AEEBB2E00D911C917B
:10455000013050E0150711F00C94BD228FEB11E0F3
:104560000E947430E6EEF5E70E945E307091C00262
:10457000777F7093C0020C94FA22023050E0150746
:1045800011F00C94D2228FEB11E00E947430ECEF0A
:10459000F5E70E945E307091C00278607093C002AF
:1045A0000C94FA22033050E0150711F00C94E72226
:1045B0008FEB11E00E947430E2E1F6E70E945E307A
:1045C0007091C00278607093C0020C94FA2204309B
:1045D00050E0150711F00C94FA228FEB11E00E94C5
:1045E0007430E8E2F6E70E945E307091C0027860B5
:1045F0007093C0028AEF90E00E946C3118990C947D
:1046000035237091CC0270647093CC023A9AE8EE34
:10461000F3E082E390E00197429A0E945C31429875
:104620000E945C31482F492BB1F7AEEBB2E08D917F
:104630009C91A1EDB2E08D939C93A0ECB2E08C91A3
:1046400083FB16F00C94312383E090E0A7EDB2E0F9
:104650008D939C937091CC02777F7093CC020C94D5
:104660003523A7EDB2E00E944D330C9411227091D6
:10467000CC0270627093CC020E94653084EF91E0AE
:104680000E946C310C946523053050E0150711F041
:104690000C9465230E9465307091CC027064709315
:1046A000CC027091CC0270627093CC023A9AE8EE20
:1046B000F3E082E390E00197429A0E945C314298D5
:1046C0000E945C31482F492BB1F77091CC027F7B5F
:1046D0007093CC02ACECB2E08C9185FB16F00C949C
:1046E00076237091CC0270647093CC020C946415A4
:1046F0000E946530A8ECB2E00E944D3385E085BD94
:104700000895A1EDB2E00D911C91023050E0150723
:1047100011F00C94AC230E946530ACECB2E08C91AB
:1047200087FB16F40C949B237091CC0270687093F5
:10473000CC020E9454132B9A8FE711E00E94743030
:10474000EEE3F6E70E945E3080E293E00E946C3177
:104750000E9465300C940624033050E0150711F0D8
:104760000C94E823439A2B9A0E9465308FE711E05E
:104770000E947430EEE3F6E70E945E303A9AE0E27F
:10478000F3E080E991E00197429A0E945C314298FF
:104790000E945C31482F492BB1F789E190E00E94DB
:1047A0006C313A9AE0E2F3E080E991E00197429AB5
:1047B0000E945C3142980E945C31482F492BB1F72E
:1047C00084E690E00E946C310E9465300C940624CF
:1047D000043050E0150711F00C9406242B984398F0
:1047E00084E690E00E946C310E9465302B9A439AD7
:1047F0008FE711E00E947430EEE3F6E70E945E302E
:1048000084EF91E00E946C310E9465300895ACEC19
:10481000B2E08C9187FB16F00C9415247091CC02B9
:104820007F777093CC020E949B144398A5E6B2E078
:104830000E944D33A7E6B2E00E944D3385E085BD6E
:1048400008958AE00E94C93281E00E94C9328AE05C
:104850000E94C9320E9465300E94C40FE8E3F1E073
:104860000E948F32AA81BB818C93E2E0FEE5AA818F
:10487000BB818C9199270E944533AC81BD810E94F8
:10488000FC3200913901013011F00C944F24A881C1
:10489000B981E4E5F6E70E94FC320C94D1240230A1
:1048A00011F00C945B24A881B981ECE5F6E70E9435
:1048B000FC320C94D124033011F00C946724A881AD
:1048C000B981E6E6F6E70E94FC320C94D12404306C
:1048D00011F00C947324A881B981ECE6F6E70E94EC
:1048E000FC320C94D124053011F00C947F24A88163
:1048F000B981E2E7F6E70E94FC320C94D12406303D
:1049000011F00C948B24A881B981E6E7F6E70E94A8
:10491000FC320C94D124073011F00C949724A88118
:10492000B981ECE7F6E70E94FC320C94D124083000
:1049300011F00C94A324A881B981E2E8F6E70E9463
:10494000FC320C94D124093011F00C94AF24A881CE
:10495000B981EAE8F6E70E94FC320C94D1240A30CF
:1049600011F00C94BB24A881B981E4E9F6E70E9418
:10497000FC320C94D1240B3011F00C94C724A88184
:10498000B981ECE9F6E70E94FC320C94D1240C309A
:1049900011F00C94D124A881B981E6EAF6E70E94CF
:1049A000FC328FE711E00E947430AC81BD810E941F
:1049B00058308FEB11E00E947430A881B9810E94B9
:1049C0005830E4E8F3E70E945E30E8E3F1E0A0E06D
:1049D000B6E00E947F350E945630E0EBF6E70E9479
:1049E0005E30EAE3F1E0A0E0B6E00E947F350E948D
:1049F0005630E4E8F3E70E945E300091EE020030AA
:104A000011F00C94152583E911E00E947430E6EB57
:104A1000F6E70E945E3083ED11E00E947430ECEC0A
:104A2000F6E70E945E300C947027013011F00C9470
:104A3000E62581E090E0AEE0B3E08D939C93809119
:104A40000E03D2018C9381E00E94C9320E94AB28F0
:104A5000229681E00E94C53283E911E00E94743001
:104A6000E2EEF6E70E945E30E8E0F3E001E0A0E16C
:104A7000B3E00E941836A8E0B3E00E945636A2E1E7
:104A8000B3E08D9388278C93A0E1B3E0ECEEF6E7DA
:104A90000E945C3611F00C949725A8E0B3E00E94C8
:104AA0005636082F112701501040A2E1B3E00D93B4
:104AB0001C93A2E1B3E00D911C91023050E0150768
:104AC00011F00C94772583E91AE00E947430A8E075
:104AD000B3E00E945830EAE7F3E70E945E30A5E0B9
:104AE000B3E00E945830EEEEF6E70E945E30A2E19D
:104AF000B3E00D911C91013050E0150711F00C94BA
:104B0000952583E91BE00E947430A8E0B3E00E9481
:104B10005830EAE7F3E70E945E30A5E0B3E00E9478
:104B20005830EEEEF6E70E945E300C94DC25A8E0EB
:104B3000B3E00E945636A2E1B3E08D9388278C93B0
:104B4000A2E1B3E00D911C91023050E0150711F085
:104B50000C94BE2583E91BE00E947430A8E0B3E00A
:104B60000E945830EAE7F3E70E945E30A5E0B3E028
:104B70000E945830EEEEF6E70E945E30A2E1B3E00C
:104B80000D911C91013050E0150711F00C94DC25BB
:104B900083E91CE00E947430A8E0B3E00E94583022
:104BA000EAE7F3E70E945E30A5E0B3E00E945830E8
:104BB000EEEEF6E70E945E3083ED11E00E94743065
:104BC000ECECF6E70E945E300C947027023011F096
:104BD0000C94702782E090E0AEE0B3E08D939C935C
:104BE00080910E03D2018C9381E00E94C9320E9411
:104BF000AB28229681E00E94C53283E911E00E9431
:104C00007430E2EEF6E70E945E30E8E0F3E001E0A7
:104C1000A0E1B3E00E941836A8E0B3E00E94563647
:104C2000A2E1B3E08D9388278C93A0E1B3E0ECEE92
:104C3000F6E70E945C3611F00C946826A8E0B3E019
:104C40000E945636082F112701501040A2E1B3E010
:104C50000D931C93A2E1B3E00D911C91023050E042
:104C6000150711F00C94482683E91AE00E9474306D
:104C7000A8E0B3E00E945830EAE7F3E70E945E3014
:104C8000A5E0B3E00E945830EEEEF6E70E945E30F9
:104C9000A2E1B3E00D911C91013050E0150711F035
:104CA0000C94662683E91BE00E947430A8E0B3E010
:104CB0000E945830EAE7F3E70E945E30A5E0B3E0D7
:104CC0000E945830EEEEF6E70E945E300C94AD265E
:104CD000A8E0B3E00E945636A2E1B3E08D938827A6
:104CE0008C93A2E1B3E00D911C91023050E01507C6
:104CF00011F00C948F2683E91BE00E947430A8E029
:104D0000B3E00E945830EAE7F3E70E945E30A5E086
:104D1000B3E00E945830EEEEF6E70E945E30A2E16A
:104D2000B3E00D911C91013050E0150711F00C9487
:104D3000AD2683E91CE00E947430A8E0B3E00E9435
:104D40005830EAE7F3E70E945E30A5E0B3E00E9446
:104D50005830EEEEF6E70E945E3081E090E0AEE083
:104D6000B3E08D939C9380910E03D2018C9381E0EC
:104D70000E94C9320E94AB28229681E00E94C5326F
:104D800083ED11E00E947430E4EFF6E70E945E309C
:104D9000E8E0F3E001E0A0E1B3E00E941836A8E00B
:104DA000B3E00E945636A2E1B3E08D9388278C933E
:104DB000A0E1B3E0ECEEF6E70E945C3611F00C9453
:104DC0002B27A8E0B3E00E945636082F1127015088
:104DD0001040A2E1B3E00D931C93A2E1B3E00D916A
:104DE0001C91023050E0150711F00C940B2783ED55
:104DF0001AE00E947430A8E0B3E00E945830EAE75D
:104E0000F3E70E945E30A5E0B3E00E945830EEEE7A
:104E1000F6E70E945E30A2E1B3E00D911C910130F3
:104E200050E0150711F00C94292783ED1BE00E9438
:104E30007430A8E0B3E00E945830EAE7F3E70E943C
:104E40005E30A5E0B3E00E945830EEEEF6E70E9437
:104E50005E300C947027A8E0B3E00E945636A2E1C1
:104E6000B3E08D9388278C93A2E1B3E00D911C9160
:104E7000023050E0150711F00C94522783ED1BE02F
:104E80000E947430A8E0B3E00E945830EAE7F3E7EC
:104E90000E945E30A5E0B3E00E945830EEEEF6E7E7
:104EA0000E945E30A2E1B3E00D911C91013050E010
:104EB000150711F00C94702783ED1CE00E947430EC
:104EC000A8E0B3E00E945830EAE7F3E70E945E30C2
:104ED000A5E0B3E00E945830EEEEF6E70E945E30A7
:104EE00088E893E10E946C3185E1481A80E0580A15
:104EF000269608950E946530A0ECB2E08C9183FB69
:104F000016F00C94CB278FE711E00E947430EEEF7F
:104F1000F6E70E945E30A1EDB2E00D911C910230E7
:104F200050E0150711F00C949F278FEB11E00E94C1
:104F30007430ECEFF5E70E945E300C94BD2703302F
:104F400050E0150711F00C94AF278FEB11E00E9491
:104F50007430E2E1F6E70E945E300C94BD27043025
:104F600050E0150711F00C94BD278FEB11E00E9463
:104F70007430E8E2F6E70E945E3083ED17E00E94AD
:104F80007430EEE0F7E70E945E30AFEAB2E00E94D4
:104F900058300C94DF278FEB11E00E947430E2E16F
:104FA000F7E70E945E3083E917E00E947430E0E288
:104FB000F7E70E945E30AFEAB2E00E94583088E81E
:104FC00093E10E946C310895E4E2F7E70E944530D6
:104FD0000E944C302B9AECE3FEE50E94B32F8FE742
:104FE00012E00E94743081E090E0A5E6B3E08D937A
:104FF0009C93A5E6B3E00D911C91013150E015079B
:105000001CF011F00C941E280E94B62FACEDB2E0FB
:105010000E94FC320E94B32FACEDB2E00E94F43546
:10502000A5EEB2E00C93A5EEB2E08C910E94C230E6
:10503000A5E6B3E00E94B92F0C94F927E6EDFEE552
:105040000E94B32F83E914E00E94743081E090E065
:10505000A5E6B3E08D939C93A5E6B3E00D911C917A
:10506000003150E015071CF011F00C9451280E94FB
:10507000B62FACEDB2E00E94FC320E94B32FACED33
:10508000B2E00E94F435A5EEB2E00C93A5EEB2E0DA
:105090008C910E94C230A5E6B3E00E94B92F0C9417
:1050A0002C2888EB9BE00E946C310E9465308FEBCE
:1050B00011E00E947430E6E3F7E70E945E3084EF6F
:1050C00091E00E946C3180E0E6E20E948E34AEEE08
:1050D000B2E00C930091EE02003011F40C949C2885
:1050E00083E911E00E947430EEEEF2E0A0E0B6E059
:1050F0000E947F350E945630E4E4F7E70E945E305C
:1051000080E0E6E20E941934A6EEB2E0EAE7F3E0BE
:1051100098E00E940C3680E0E6E20E941E34A6EE83
:10512000B2E0EAE7F3E098E00E940C3662FA16F08B
:105130000C948B280C94A42883E911E00E9474300D
:10514000E8E5F7E70E945E308CED95E00E946C3157
:105150000E946530089581E00E94C93280E0E6E255
:105160000E9474335CEC80E0E6E20E949C3354E4DD
:1051700080E0E6E20E949C338EEE92E00E946C3169
:1051800080E0E6E2AA81BB81AD90BB24A5EEB2E04F
:10519000AA0DBB1D0E94A3345EEB80E0E6E20E94F4
:1051A0009C3380E0AFEEB2E0E6E229E02A930E9471
:1051B000C433EFEEF2E088E00E947036402F009199
:1051C000F702041711F00C94A5290091EF0241E0B9
:1051D0000423AEEFB2E00C930091FE02013011F017
:1051E0000C94F7288091EF0281508093EF02909108
:1051F000F0028091EF02A8EFB2E08D939D9397FBB0
:1052000026F48FEF8D938C9303C088278D938C9316
:10521000A8EFB2E00D911D912D913C9142E350E039
:1052200060E070E00E94D932A8EFB2E00D931D93C8
:105230002D933D93A8EFB2E00D911D912D913C91DE
:1052400049E150E060E070E00E945C35A8EFB2E018
:105250000D931D932D933D93A6EFB2E00D91112771
:10526000A5EFB2E04D915527041B150BACEFB2E052
:105270000D931C93ACEFB2E00D911C9144E650E00D
:105280000E94CF32ACEFB2E00D931C93ACEFB2E0D2
:105290000D911C91A6EFB2E04D9155270E94CD2FA4
:1052A000ACEFB2E04D935C93A8EFB2E00D911D918D
:1052B0002D913C91ACEFB2E04D915D9157FB1EF406
:1052C0006FEF7FEF02C0662777270E945735A8EF60
:1052D000B2E00D931D932D933D93A8EFB2E00D9195
:1052E0001D912D913C9144E650E060E070E00E94F9
:1052F000EC30A8EFB2E04D935D936D937D93E8EFB2
:10530000F2E0AFEFB2E00E947235AFEFB2E00E9480
:105310005636EA2FFB2F32970FEFA5E0B3E00E943D
:105320001836AFEFB2E00E945636082F1127015011
:105330001040ACE0B3E00D931C93EFEFF2E000916E
:105340000C03A8E0B3E00E94183681E0481A80E020
:10535000580A22960895439A81E090E0A5E6B3E0CA
:105360008D939C93A5E6B3E00D911C91093050E01C
:1053700015071CF011F00C94EF290091650340E132
:10538000049FACE6B3E00C9200E010E020E030E0D7
:10539000ACE6B3E04C915527662777270E94573536
:1053A000A8E6B3E00D931D932D933D93A8E6B3E0DB
:1053B000ED91FC91A5E6B3E00D911C9141E150E027
:1053C0000E94CF32ABE6B1E0A00FB11F91E10E9485
:1053D0003F36A5E6B3E00E94B92F0C94B22981E0D4
:1053E00090E0A5E6B3E08D939C93A5E6B3E00D9124
:1053F0001C91093050E015071CF011F00C94322A72
:105400000091650340E1049FACE6B3E00C9200E933
:1054100010E020E030E0ACE6B3E04C915527662781
:1054200077270E945735A8E6B3E00D931D932D937F
:105430003D93A8E6B3E0ED91FC91A5E6B3E00D91B4
:105440001C9148E050E00E94CF32ADE0B2E0A00FE6
:10545000B11F98E00E943F36A5E6B3E00E94B92F45
:105460000C94F529ECE6F7E70E94453081E090E0E6
:10547000A5E6B3E08D939C93A5E6B3E00D911C9156
:10548000093050E015071CF011F00C94752AA5E6C0
:10549000B3E00D911C9141E150E00E94CF32ABE6A8
:1054A000B1E0A00FB11F0E943F30E8E3F4E70E9493
:1054B0004530A5E6B3E00D911C9148E050E00E9414
:1054C000CF32ADE0B2E0A00FB11F0E943F30E6EC5A
:1054D000F5E70E94453080E991E00E946C31A5E635
:1054E000B3E00E94B92F0C943C2AE0E7F7E70E9452
:1054F00045300E944C3084E690E00E946C31E2E737
:10550000F7E70E9445300E944C3084EF91E00E9402
:105510006C3143980895E0E1F0E0ACE7B1E091E14F
:105520000E943F36E894ECE7F1E001E00E9421366A
:10553000082F0F3F11F00C94A12AACE7B1E00E94B4
:105540004D33E0EAF0E0A5E1B2E098E00E943F369A
:10555000A5E1B2E08C91803011F40C94BB2AA5E156
:10556000B2E00E942638EDE0F0E0A8E5B1E00E944C
:105570000B360C94C12AA8E5B1E0E6E2F3E70E94FD
:105580003A33E0E2F0E0ADE8B1E091E10E943F366D
:10559000E894EDE8F1E001E00E942136082F0F3F8A
:1055A00011F00C94D72AADE8B1E00E944D33E0EB46
:1055B000F0E0ADE1B2E098E00E943F36ADE1B2E04C
:1055C0008C91803011F40C94F12AADE1B2E00E948C
:1055D0002638EDE0F0E0ACE5B1E00E940B360C942B
:1055E000F72AACE5B1E0E6E2F3E70E943A33E0E304
:1055F000F0E0AEE9B1E091E10E943F36E894EEE9D7
:10560000F1E001E00E942136082F0F3F11F00C94C9
:105610000D2BAEE9B1E00E944D33E0ECF0E0A5E2E5
:10562000B2E098E00E943F36A5E2B2E08C91803073
:1056300011F40C94272BA5E2B2E00E942638EDE08D
:10564000F0E0A0E6B1E00E940B360C942D2BA0E612
:10565000B1E0E6E2F3E70E943A33E0E4F0E0AFEADB
:10566000B1E091E10E943F36E894EFEAF1E001E019
:105670000E942136082F0F3F11F00C94432BAFEA04
:10568000B1E00E944D33E0EDF0E0ADE2B2E098E031
:105690000E943F36ADE2B2E08C91803011F40C9460
:1056A0005D2BADE2B2E00E942638EDE0F0E0A4E62A
:1056B000B1E00E940B360C94632BA4E6B1E0E6E265
:1056C000F3E70E943A33E0E5F0E0A0ECB1E091E1CD
:1056D0000E943F36E894E0ECF1E001E00E942136C0
:1056E000082F0F3F11F00C94792BA0ECB1E00E9431
:1056F0004D33E0EEF0E0A5E3B2E098E00E943F36E3
:10570000A5E3B2E08C91803011F40C94932BA5E3C7
:10571000B2E00E942638EDE0F0E0A8E6B1E00E9499
:105720000B360C94992BA8E6B1E0E6E2F3E70E9471
:105730003A33E0E6F0E0A1EDB1E091E10E943F36BE
:10574000E894E1EDF1E001E00E942136082F0F3FDF
:1057500011F00C94AF2BA1EDB1E00E944D33E0EFBE
:10576000F0E0ADE3B2E098E00E943F36ADE3B2E096
:105770008C91803011F40C94C92BADE3B2E00E94FF
:105780002638EDE0F0E0ACE6B1E00E940B360C9478
:10579000CF2BACE6B1E0E6E2F3E70E943A33E0E774
:1057A000F0E0A2EEB1E091E10E943F36E894E2EE33
:1057B000F1E001E00E942136082F0F3F11F00C9418
:1057C000E52BA2EEB1E00E944D33E0E0F1E0A5E46C
:1057D000B2E098E00E943F36A5E4B2E08C918030C0
:1057E00011F40C94FF2BA5E4B2E00E942638EDE002
:1057F000F0E0A0E7B1E00E940B360C94052CA0E786
:10580000B1E0E6E2F3E70E943A33E0E8F0E0A3EF2C
:10581000B1E091E10E943F36E894E3EFF1E001E06E
:105820000E942136082F0F3F11F00C941B2CA3EF80
:10583000B1E00E944D33E0E1F1E0ADE4B2E098E088
:105840000E943F36ADE4B2E08C91803011F40C94AC
:10585000352CADE4B2E00E942638EDE0F0E0A4E79C
:10586000B1E00E940B360C943B2CA4E7B1E0E6E2D9
:10587000F3E70E943A33E0E9F0E0A4E0B2E091E11E
:105880000E943F36E894E4E0F2E001E00E94213615
:10589000082F0F3F11F00C94512CA4E0B2E00E94AD
:1058A0004D33E0E2F1E0A5E5B2E098E00E943F363A
:1058B000A5E5B2E08C91803011F40C946B2CA5E539
:1058C000B2E00E942638EDE0F0E0A8E7B1E00E94E7
:1058D0000B360C94712CA8E7B1E0E6E2F3E70E94E6
:1058E0003A33089581E080935E0300915E030930AE
:1058F00018F011F00C943E2D00915E0340E1049FDE
:10590000ACE6B3E00C9200E010E020E030E0ACE662
:10591000B3E04C915527662777270E945735ADE6AF
:10592000B3E00D931D932D933D9300E910E020E02B
:1059300030E0ACE6B3E04C915527662777270E940C
:105940005735A1E7B3E00D931D932D933D9380E070
:10595000AEE5B3E00D91112741E150E00E94CF3256
:10596000ABE6B1E0A00FB11F8D9388278C9380E048
:10597000AEE5B3E00D91112748E050E00E94CF3230
:10598000ADE0B2E0A00FB11F8D9388278C93A5E600
:10599000B3E00E944D33A5E6B3E00D911C910F30AA
:1059A00050E015071CF011F00C94362DADE6B3E075
:1059B0000D911D912D913C91A5E6B3E04D915D9126
:1059C00057FB1EF46FEF7FEF02C0662777270E9418
:1059D0005735A8E6B3E00D931D932D933D93A8E6AC
:1059E000B3E0ED91FC91AEE5B3E00D91112741E1FB
:1059F00050E00E94CF32ABE6B1E0A00FB11F91E1C1
:105A00007BE70E943136A1E7B3E00D911D912D9106
:105A10003C91A5E6B3E04D915D9157FB1EF46FEF0D
:105A20007FEF02C0662777270E945735A8E6B3E0CC
:105A30000D931D932D933D93A8E6B3E0ED91FC915A
:105A4000AEE5B3E00D91112748E050E00E94CF325F
:105A5000ADE0B2E0A00FB11F98E07BE70E943136C5
:105A6000A5E6B3E00E94B92F0C94CB2CAEE5B3E0D1
:105A70008C918F5F8C9310F40C94752CA8E5B1E099
:105A8000E2E4F3E70E943A33ACE7B1E0EEE7F7E790
:105A90000E94FC32ACE5B1E0E6E4F3E70E943A3361
:105AA000ADE8B1E0E8E8F7E70E94FC32A0E6B1E03B
:105AB000EAE4F3E70E943A33AEE9B1E0EEE8F7E753
:105AC0000E94FC32A4E6B1E0EEE4F3E70E943A3330
:105AD000AFEAB1E0E4E9F7E70E94FC32A8E6B1E002
